{
    "_format": "hh-sol-artifact-1",
    "contractName": "SupplyChain",
    "sourceName": "contracts/SupplyChain.sol",
    "abi": [
        {
            "anonymous": false,
            "inputs": [
                {
                    "indexed": false,
                    "internalType": "uint256",
                    "name": "productId",
                    "type": "uint256"
                },
                {
                    "indexed": false,
                    "internalType": "address",
                    "name": "newOwner",
                    "type": "address"
                }
            ],
            "name": "OwnershipTransferred",
            "type": "event"
        },
        {
            "anonymous": false,
            "inputs": [
                {
                    "indexed": false,
                    "internalType": "uint256",
                    "name": "productId",
                    "type": "uint256"
                },
                {
                    "indexed": false,
                    "internalType": "string",
                    "name": "name",
                    "type": "string"
                },
                {
                    "indexed": false,
                    "internalType": "uint256",
                    "name": "price",
                    "type": "uint256"
                },
                {
                    "indexed": false,
                    "internalType": "address",
                    "name": "owner",
                    "type": "address"
                }
            ],
            "name": "ProductCreated",
            "type": "event"
        },
        {
            "anonymous": false,
            "inputs": [
                {
                    "indexed": false,
                    "internalType": "uint256",
                    "name": "productId",
                    "type": "uint256"
                },
                {
                    "indexed": false,
                    "internalType": "enum SupplyChain.State",
                    "name": "state",
                    "type": "uint8"
                }
            ],
            "name": "StateChanged",
            "type": "event"
        },
        {
            "anonymous": false,
            "inputs": [
                {
                    "indexed": false,
                    "internalType": "address",
                    "name": "userAddress",
                    "type": "address"
                },
                {
                    "indexed": false,
                    "internalType": "string",
                    "name": "username",
                    "type": "string"
                }
            ],
            "name": "UserRegistered",
            "type": "event"
        },
        {
            "inputs": [],
            "name": "admin",
            "outputs": [
                {
                    "internalType": "address",
                    "name": "",
                    "type": "address"
                }
            ],
            "stateMutability": "view",
            "type": "function"
        },
        {
            "inputs": [
                {
                    "internalType": "string",
                    "name": "_name",
                    "type": "string"
                },
                {
                    "internalType": "uint256",
                    "name": "_price",
                    "type": "uint256"
                }
            ],
            "name": "createProduct",
            "outputs": [],
            "stateMutability": "nonpayable",
            "type": "function"
        },
        {
            "inputs": [],
            "name": "getAllProducts",
            "outputs": [
                {
                    "components": [
                        {
                            "internalType": "uint256",
                            "name": "productId",
                            "type": "uint256"
                        },
                        {
                            "internalType": "string",
                            "name": "name",
                            "type": "string"
                        },
                        {
                            "internalType": "uint256",
                            "name": "price",
                            "type": "uint256"
                        },
                        {
                            "internalType": "enum SupplyChain.State",
                            "name": "state",
                            "type": "uint8"
                        },
                        {
                            "internalType": "address",
                            "name": "owner",
                            "type": "address"
                        }
                    ],
                    "internalType": "struct SupplyChain.ProductWithID[]",
                    "name": "",
                    "type": "tuple[]"
                }
            ],
            "stateMutability": "view",
            "type": "function"
        },
        {
            "inputs": [
                {
                    "internalType": "uint256",
                    "name": "_productId",
                    "type": "uint256"
                }
            ],
            "name": "getProduct",
            "outputs": [
                {
                    "internalType": "string",
                    "name": "",
                    "type": "string"
                },
                {
                    "internalType": "uint256",
                    "name": "",
                    "type": "uint256"
                },
                {
                    "internalType": "enum SupplyChain.State",
                    "name": "",
                    "type": "uint8"
                },
                {
                    "internalType": "address",
                    "name": "",
                    "type": "address"
                }
            ],
            "stateMutability": "view",
            "type": "function"
        },
        {
            "inputs": [],
            "name": "initialize",
            "outputs": [],
            "stateMutability": "nonpayable",
            "type": "function"
        },
        {
            "inputs": [],
            "name": "productCount",
            "outputs": [
                {
                    "internalType": "uint256",
                    "name": "",
                    "type": "uint256"
                }
            ],
            "stateMutability": "view",
            "type": "function"
        },
        {
            "inputs": [
                {
                    "internalType": "uint256",
                    "name": "",
                    "type": "uint256"
                }
            ],
            "name": "products",
            "outputs": [
                {
                    "internalType": "string",
                    "name": "name",
                    "type": "string"
                },
                {
                    "internalType": "uint256",
                    "name": "price",
                    "type": "uint256"
                },
                {
                    "internalType": "enum SupplyChain.State",
                    "name": "state",
                    "type": "uint8"
                },
                {
                    "internalType": "address",
                    "name": "owner",
                    "type": "address"
                }
            ],
            "stateMutability": "view",
            "type": "function"
        },
        {
            "inputs": [
                {
                    "internalType": "string",
                    "name": "_username",
                    "type": "string"
                }
            ],
            "name": "registerUser",
            "outputs": [],
            "stateMutability": "nonpayable",
            "type": "function"
        },
        {
            "inputs": [
                {
                    "internalType": "uint256",
                    "name": "_productId",
                    "type": "uint256"
                },
                {
                    "internalType": "address",
                    "name": "_newOwner",
                    "type": "address"
                }
            ],
            "name": "transferOwnership",
            "outputs": [],
            "stateMutability": "nonpayable",
            "type": "function"
        },
        {
            "inputs": [
                {
                    "internalType": "uint256",
                    "name": "_productId",
                    "type": "uint256"
                },
                {
                    "internalType": "enum SupplyChain.State",
                    "name": "_state",
                    "type": "uint8"
                }
            ],
            "name": "updateState",
            "outputs": [],
            "stateMutability": "nonpayable",
            "type": "function"
        }
    ],
    "bytecode": "0x608060405234801561001057600080fd5b506110e2806100206000396000f3fe608060405234801561001057600080fd5b506004361061009e5760003560e01c8063b9db15b411610066578063b9db15b414610114578063e0f6ef8714610127578063e9300c6c1461013e578063f851a44014610151578063ffbafdfe1461017c57600080fd5b806302ee3a52146100a357806329507f73146100c1578063704f1b94146100d65780637acc0b20146100e95780638129fc1c1461010c575b600080fd5b6100ab61018f565b6040516100b89190610bae565b60405180910390f35b6100d46100cf366004610c59565b610321565b005b6100d46100e4366004610d38565b6104c3565b6100fc6100f7366004610d75565b6105d9565b6040516100b89493929190610d8e565b6100d4610696565b6100fc610122366004610d75565b61072a565b61013060035481565b6040519081526020016100b8565b6100d461014c366004610dd0565b610859565b600054610164906001600160a01b031681565b6040516001600160a01b0390911681526020016100b8565b6100d461018a366004610e15565b6109e9565b6060600060035467ffffffffffffffff8111156101ae576101ae610c95565b6040519080825280602002602001820160405280156101e757816020015b6101d4610af0565b8152602001906001900390816101cc5790505b50905060005b60035481101561031b5760006001600083815260200190815260200160002090506040518060a0016040528083815260200182600001805461022e90610e3e565b80601f016020809104026020016040519081016040528092919081815260200182805461025a90610e3e565b80156102a75780601f1061027c576101008083540402835291602001916102a7565b820191906000526020600020905b81548152906001019060200180831161028a57829003601f168201915b50505091835250506001830154602082015260028084015460409092019160ff16908111156102d8576102d8610b76565b8152600283015461010090046001600160a01b0316602090910152835184908490811061030757610307610e72565b6020908102919091010152506001016101ed565b50919050565b600082815260016020526040902060020154829061010090046001600160a01b0316331461036a5760405162461bcd60e51b815260040161036190610e88565b60405180910390fd5b336000908152600260208190526040909120015460ff166103c35760405162461bcd60e51b8152602060048201526013602482015272155cd95c881b9bdd081c9959da5cdd195c9959606a1b6044820152606401610361565b600083815260016020526040902060029081015460ff16818111156103ea576103ea610b76565b036104505760405162461bcd60e51b815260206004820152603060248201527f43616e6e6f74207472616e73666572206f776e657273686970206f662061206460448201526f195b1a5d995c9959081c1c9bd91d58dd60821b6064820152608401610361565b6000838152600160209081526040918290206002018054610100600160a81b0319166101006001600160a01b038716908102919091179091558251868152918201527fba8cc72bdfdb4f3e2281c3f17f6be90c470f76dd1106321a2928859835874bc291015b60405180910390a1505050565b336000908152600260208190526040909120015460ff16156105275760405162461bcd60e51b815260206004820152601760248201527f5573657220616c726561647920726567697374657265640000000000000000006044820152606401610361565b6040805160608101825233808252602080830185815260018486018190526000938452600290925293909120825181546001600160a01b0319166001600160a01b039091161781559251919291908201906105829082610f27565b50604091820151600291909101805460ff1916911515919091179055517f48cac28ad4dc618e15f4c2dd5e97751182f166de97b25618318b2112aa951a2f906105ce9033908490610fe7565b60405180910390a150565b6001602052600090815260409020805481906105f490610e3e565b80601f016020809104026020016040519081016040528092919081815260200182805461062090610e3e565b801561066d5780601f106106425761010080835404028352916020019161066d565b820191906000526020600020905b81548152906001019060200180831161065057829003601f168201915b50505050600183015460029093015491929160ff8116915061010090046001600160a01b031684565b600054600160a01b900460ff16156107075760405162461bcd60e51b815260206004820152602e60248201527f436f6e747261637420696e7374616e63652068617320616c726561647920626560448201526d195b881a5b9a5d1a585b1a5e995960921b6064820152608401610361565b6000805460ff60a01b1933166001600160a81b031990911617600160a01b179055565b60606000806000806001600087815260200190815260200160002060405180608001604052908160008201805461076090610e3e565b80601f016020809104026020016040519081016040528092919081815260200182805461078c90610e3e565b80156107d95780601f106107ae576101008083540402835291602001916107d9565b820191906000526020600020905b8154815290600101906020018083116107bc57829003601f168201915b50505091835250506001820154602082015260028083015460409092019160ff169081111561080a5761080a610b76565b600281111561081b5761081b610b76565b81526002919091015461010090046001600160a01b031660209182015281519082015160408301516060909301519199909850919650945092505050565b6000546001600160a01b031633146108cb5760405162461bcd60e51b815260206004820152602f60248201527f4f6e6c792074686520636f6e74726163742061646d696e2063616e207065726660448201526e37b936903a3434b99030b1ba34b7b760891b6064820152608401610361565b604051806080016040528083815260200182670de0b6b3a76400006108f09190611021565b81526000602080830182905281546001600160a01b031660409384015260035482526001905220815181906109259082610f27565b506020820151816001015560408201518160020160006101000a81548160ff0219169083600281111561095a5761095a610b76565b02179055506060919091015160029091018054610100600160a81b0319166101006001600160a01b03938416021790556003546000546040517f2e87df3c8f53fb06266ed52023929f5fab9f24130224ef6538b665d9cac82530936109c8939287928792919091169061103e565b60405180910390a1600380549060006109e083611078565b91905055505050565b600082815260016020526040902060020154829061010090046001600160a01b03163314610a295760405162461bcd60e51b815260040161036190610e88565b336000908152600260208190526040909120015460ff16610a825760405162461bcd60e51b8152602060048201526013602482015272155cd95c881b9bdd081c9959da5cdd195c9959606a1b6044820152606401610361565b816001600085815260200190815260200160002060020160006101000a81548160ff02191690836002811115610aba57610aba610b76565b02179055507ffafe884515ca1fa5e0bf815ce87ef00b2cdaa0eee590d20376604937937a10bf83836040516104b6929190611091565b6040518060a0016040528060008152602001606081526020016000815260200160006002811115610b2357610b23610b76565b8152600060209091015290565b6000815180845260005b81811015610b5657602081850181015186830182015201610b3a565b506000602082860101526020601f19601f83011685010191505092915050565b634e487b7160e01b600052602160045260246000fd5b60038110610baa57634e487b7160e01b600052602160045260246000fd5b9052565b600060208083018184528085518083526040925060408601915060408160051b87010184880160005b83811015610c4b57603f19898403018552815160a08151855288820151818a870152610c0582870182610b30565b9150508782015188860152606080830151610c2282880182610b8c565b50506080918201516001600160a01b031694909101939093529386019390860190600101610bd7565b509098975050505050505050565b60008060408385031215610c6c57600080fd5b8235915060208301356001600160a01b0381168114610c8a57600080fd5b809150509250929050565b634e487b7160e01b600052604160045260246000fd5b600082601f830112610cbc57600080fd5b813567ffffffffffffffff80821115610cd757610cd7610c95565b604051601f8301601f19908116603f01168101908282118183101715610cff57610cff610c95565b81604052838152866020858801011115610d1857600080fd5b836020870160208301376000602085830101528094505050505092915050565b600060208284031215610d4a57600080fd5b813567ffffffffffffffff811115610d6157600080fd5b610d6d84828501610cab565b949350505050565b600060208284031215610d8757600080fd5b5035919050565b608081526000610da16080830187610b30565b9050846020830152610db66040830185610b8c565b6001600160a01b0392909216606091909101529392505050565b60008060408385031215610de357600080fd5b823567ffffffffffffffff811115610dfa57600080fd5b610e0685828601610cab565b95602094909401359450505050565b60008060408385031215610e2857600080fd5b82359150602083013560038110610c8a57600080fd5b600181811c90821680610e5257607f821691505b60208210810361031b57634e487b7160e01b600052602260045260246000fd5b634e487b7160e01b600052603260045260246000fd5b6020808252602e908201527f4f6e6c79207468652070726f64756374206f776e65722063616e20706572666f60408201526d3936903a3434b99030b1ba34b7b760911b606082015260800190565b601f821115610f22576000816000526020600020601f850160051c81016020861015610eff5750805b601f850160051c820191505b81811015610f1e57828155600101610f0b565b5050505b505050565b815167ffffffffffffffff811115610f4157610f41610c95565b610f5581610f4f8454610e3e565b84610ed6565b602080601f831160018114610f8a5760008415610f725750858301515b600019600386901b1c1916600185901b178555610f1e565b600085815260208120601f198616915b82811015610fb957888601518255948401946001909101908401610f9a565b5085821015610fd75787850151600019600388901b60f8161c191681555b5050505050600190811b01905550565b6001600160a01b0383168152604060208201819052600090610d6d90830184610b30565b634e487b7160e01b600052601160045260246000fd5b80820281158282048414176110385761103861100b565b92915050565b8481526080602082015260006110576080830186610b30565b6040830194909452506001600160a01b039190911660609091015292915050565b60006001820161108a5761108a61100b565b5060010190565b828152604081016110a56020830184610b8c565b939250505056fea2646970667358221220c91af1184f2e973d9d1496d2e53871a7fc6d795d2cd7e5adb18cd7b8329dd27164736f6c63430008180033",
    "linkReferences": {},
    "deployedLinkReferences": {}
}